{
  "contractName": "Lab",
  "abi": [
    {
      "constant": true,
      "inputs": [],
      "name": "labName",
      "outputs": [
        {
          "name": "",
          "type": "string"
        }
      ],
      "payable": false,
      "stateMutability": "view",
      "type": "function",
      "signature": "0x71756577"
    },
    {
      "constant": true,
      "inputs": [
        {
          "name": "",
          "type": "uint256"
        }
      ],
      "name": "studyList",
      "outputs": [
        {
          "name": "",
          "type": "address"
        }
      ],
      "payable": false,
      "stateMutability": "view",
      "type": "function",
      "signature": "0xbbf415c4"
    },
    {
      "constant": true,
      "inputs": [],
      "name": "_labOwner",
      "outputs": [
        {
          "name": "",
          "type": "address"
        }
      ],
      "payable": false,
      "stateMutability": "view",
      "type": "function",
      "signature": "0xe2e2384c"
    },
    {
      "inputs": [
        {
          "name": "_labName",
          "type": "string"
        }
      ],
      "payable": false,
      "stateMutability": "nonpayable",
      "type": "constructor",
      "signature": "constructor"
    },
    {
      "anonymous": false,
      "inputs": [
        {
          "indexed": false,
          "name": "studyAddr",
          "type": "address"
        },
        {
          "indexed": false,
          "name": "studyAdmin",
          "type": "address"
        }
      ],
      "name": "StudyCreated",
      "type": "event",
      "signature": "0x0156e4a33a773dddbb7d73fced87c00e0017214a8fd71d1c3049d29dbceae7a9"
    },
    {
      "constant": false,
      "inputs": [
        {
          "name": "_labName",
          "type": "string"
        }
      ],
      "name": "setLabName",
      "outputs": [],
      "payable": false,
      "stateMutability": "nonpayable",
      "type": "function",
      "signature": "0x0c15b95a"
    },
    {
      "constant": true,
      "inputs": [],
      "name": "getStudyCount",
      "outputs": [
        {
          "name": "count",
          "type": "uint256"
        }
      ],
      "payable": false,
      "stateMutability": "view",
      "type": "function",
      "signature": "0xddd7c140"
    },
    {
      "constant": false,
      "inputs": [
        {
          "name": "_studyName",
          "type": "string"
        },
        {
          "name": "_ownerName",
          "type": "bytes32"
        },
        {
          "name": "_ownerEmail",
          "type": "bytes32"
        },
        {
          "name": "_syllabusURL",
          "type": "bytes32"
        }
      ],
      "name": "createStudy",
      "outputs": [],
      "payable": false,
      "stateMutability": "nonpayable",
      "type": "function",
      "signature": "0x0dce3d55"
    },
    {
      "constant": true,
      "inputs": [],
      "name": "getStudyList",
      "outputs": [
        {
          "name": "",
          "type": "address[]"
        }
      ],
      "payable": false,
      "stateMutability": "view",
      "type": "function",
      "signature": "0xa13fd557"
    }
  ],
  "bytecode": "0x608060405234801561001057600080fd5b5060405161337c38038061337c8339810180604052602081101561003357600080fd5b81019080805164010000000081111561004b57600080fd5b8281019050602081018481111561006157600080fd5b815185600182028301116401000000008211171561007e57600080fd5b5050929190505050336000806101000a81548173ffffffffffffffffffffffffffffffffffffffff021916908373ffffffffffffffffffffffffffffffffffffffff16021790555080600190805190602001906100dc9291906100e3565b5050610188565b828054600181600116156101000203166002900490600052602060002090601f016020900481019282601f1061012457805160ff1916838001178555610152565b82800160010185558215610152579182015b82811115610151578251825591602001919060010190610136565b5b50905061015f9190610163565b5090565b61018591905b80821115610181576000816000905550600101610169565b5090565b90565b6131e5806101976000396000f3fe6080604052600436106200008b576000357c0100000000000000000000000000000000000000000000000000000000900463ffffffff1680630c15b95a14620000905780630dce3d55146200015f57806371756577146200024c578063a13fd55714620002e2578063bbf415c41462000353578063ddd7c14014620003d2578063e2e2384c1462000400575b600080fd5b3480156200009d57600080fd5b506200015d60048036036020811015620000b657600080fd5b8101908080359060200190640100000000811115620000d457600080fd5b820183602082011115620000e757600080fd5b803590602001918460018302840111640100000000831117156200010a57600080fd5b91908080601f016020809104026020016040519081016040528093929190818152602001838380828437600081840152601f19601f8201169050808301925050505050505091929192905050506200045a565b005b3480156200016c57600080fd5b506200024a600480360360808110156200018557600080fd5b8101908080359060200190640100000000811115620001a357600080fd5b820183602082011115620001b657600080fd5b80359060200191846001830284011164010000000083111715620001d957600080fd5b91908080601f016020809104026020016040519081016040528093929190818152602001838380828437600081840152601f19601f820116905080830192505050505050509192919290803590602001909291908035906020019092919080359060200190929190505050620004d2565b005b3480156200025957600080fd5b5062000264620006c7565b6040518080602001828103825283818151815260200191508051906020019080838360005b83811015620002a657808201518184015260208101905062000289565b50505050905090810190601f168015620002d45780820380516001836020036101000a031916815260200191505b509250505060405180910390f35b348015620002ef57600080fd5b50620002fa62000769565b6040518080602001828103825283818151815260200191508051906020019060200280838360005b838110156200033f57808201518184015260208101905062000322565b505050509050019250505060405180910390f35b3480156200036057600080fd5b5062000390600480360360208110156200037957600080fd5b8101908080359060200190929190505050620007f9565b604051808273ffffffffffffffffffffffffffffffffffffffff1673ffffffffffffffffffffffffffffffffffffffff16815260200191505060405180910390f35b348015620003df57600080fd5b50620003ea62000838565b6040518082815260200191505060405180910390f35b3480156200040d57600080fd5b506200041862000845565b604051808273ffffffffffffffffffffffffffffffffffffffff1673ffffffffffffffffffffffffffffffffffffffff16815260200191505060405180910390f35b6000809054906101000a900473ffffffffffffffffffffffffffffffffffffffff1673ffffffffffffffffffffffffffffffffffffffff163373ffffffffffffffffffffffffffffffffffffffff16141515620004b657600080fd5b8060019080519060200190620004ce9291906200086a565b5050565b60003385858585620004e3620008f1565b808673ffffffffffffffffffffffffffffffffffffffff1673ffffffffffffffffffffffffffffffffffffffff16815260200180602001858152602001848152602001838152602001828103825286818151815260200191508051906020019080838360005b838110156200056657808201518184015260208101905062000549565b50505050905090810190601f168015620005945780820380516001836020036101000a031916815260200191505b509650505050505050604051809103906000f080158015620005ba573d6000803e3d6000fd5b509050600081905060028190806001815401808255809150509060018203906000526020600020016000909192909190916101000a81548173ffffffffffffffffffffffffffffffffffffffff021916908373ffffffffffffffffffffffffffffffffffffffff160217905550507f0156e4a33a773dddbb7d73fced87c00e0017214a8fd71d1c3049d29dbceae7a98133604051808373ffffffffffffffffffffffffffffffffffffffff1673ffffffffffffffffffffffffffffffffffffffff1681526020018273ffffffffffffffffffffffffffffffffffffffff1673ffffffffffffffffffffffffffffffffffffffff1681526020019250505060405180910390a1505050505050565b60018054600181600116156101000203166002900480601f016020809104026020016040519081016040528092919081815260200182805460018160011615610100020316600290048015620007615780601f10620007355761010080835404028352916020019162000761565b820191906000526020600020905b8154815290600101906020018083116200074357829003601f168201915b505050505081565b60606002805480602002602001604051908101604052809291908181526020018280548015620007ef57602002820191906000526020600020905b8160009054906101000a900473ffffffffffffffffffffffffffffffffffffffff1673ffffffffffffffffffffffffffffffffffffffff1681526020019060010190808311620007a4575b5050505050905090565b6002818154811015156200080957fe5b906000526020600020016000915054906101000a900473ffffffffffffffffffffffffffffffffffffffff1681565b6000600280549050905090565b6000809054906101000a900473ffffffffffffffffffffffffffffffffffffffff1681565b828054600181600116156101000203166002900490600052602060002090601f016020900481019282601f10620008ad57805160ff1916838001178555620008de565b82800160010185558215620008de579182015b82811115620008dd578251825591602001919060010190620008c0565b5b509050620008ed919062000902565b5090565b60405161288f806200092b83390190565b6200092791905b808211156200092357600081600090555060010162000909565b5090565b9056fe60806040523480156200001157600080fd5b506040516200288f3803806200288f833981018060405260a08110156200003757600080fd5b810190808051906020019092919080516401000000008111156200005a57600080fd5b828101905060208101848111156200007157600080fd5b81518560018202830111640100000000821117156200008f57600080fd5b50509291906020018051906020019092919080519060200190929190805190602001909291905050508360019080519060200190620000d0929190620002f2565b50846000806101000a81548173ffffffffffffffffffffffffffffffffffffffff021916908373ffffffffffffffffffffffffffffffffffffffff16021790555060806040519081016040528084815260200183815260200160011515815260200160011515815250600360008060009054906101000a900473ffffffffffffffffffffffffffffffffffffffff1673ffffffffffffffffffffffffffffffffffffffff1673ffffffffffffffffffffffffffffffffffffffff168152602001908152602001600020600082015181600001556020820151816001015560408201518160020160006101000a81548160ff02191690831515021790555060608201518160020160016101000a81548160ff02191690831515021790555090505080600281905550600060068190555060016005819055507fddf1e1cf250ae92e5787bedfba378aac7289b561ad5289669832f8dd488b9fe58482604051808060200183815260200180602001838103835285818151815260200191508051906020019080838360005b838110156200027657808201518184015260208101905062000259565b50505050905090810190601f168015620002a45780820380516001836020036101000a031916815260200191505b508381038252600d8152602001807f537475647920437265617465640000000000000000000000000000000000000081525060200194505050505060405180910390a15050505050620003a1565b828054600181600116156101000203166002900490600052602060002090601f016020900481019282601f106200033557805160ff191683800117855562000366565b8280016001018555821562000366579182015b828111156200036557825182559160200191906001019062000348565b5b50905062000375919062000379565b5090565b6200039e91905b808211156200039a57600081600090555060010162000380565b5090565b90565b6124de80620003b16000396000f3fe6080604052600436106100fc576000357c0100000000000000000000000000000000000000000000000000000000900463ffffffff1680631785f53c14610101578063285867851461015257806341c0e1b51461017d5780634b82caec14610194578063704b6c021461020b57806378c4798c1461025c5780638522de36146102ad578063893d20e81461033d57806393bddbb1146103945780639e10acf0146103ef578063b1a2737714610445578063b4307e3f14610470578063d81d48db14610500578063deee6a5b1461053b578063f2fde38b14610603578063f3240cfb14610654578063f66f6f22146106b9578063f750d77e146106fe575b600080fd5b34801561010d57600080fd5b506101506004803603602081101561012457600080fd5b81019080803573ffffffffffffffffffffffffffffffffffffffff169060200190929190505050610729565b005b34801561015e57600080fd5b50610167610a59565b6040518082815260200191505060405180910390f35b34801561018957600080fd5b50610192610a63565b005b3480156101a057600080fd5b506101e3600480360360208110156101b757600080fd5b81019080803573ffffffffffffffffffffffffffffffffffffffff169060200190929190505050610b66565b6040518084815260200183815260200182151515158152602001935050505060405180910390f35b34801561021757600080fd5b5061025a6004803603602081101561022e57600080fd5b81019080803573ffffffffffffffffffffffffffffffffffffffff169060200190929190505050610cdf565b005b34801561026857600080fd5b506102ab6004803603602081101561027f57600080fd5b81019080803573ffffffffffffffffffffffffffffffffffffffff16906020019092919050505061102f565b005b3480156102b957600080fd5b506102c2611404565b6040518080602001828103825283818151815260200191508051906020019080838360005b838110156103025780820151818401526020810190506102e7565b50505050905090810190601f16801561032f5780820380516001836020036101000a031916815260200191505b509250505060405180910390f35b34801561034957600080fd5b506103526114a6565b604051808273ffffffffffffffffffffffffffffffffffffffff1673ffffffffffffffffffffffffffffffffffffffff16815260200191505060405180910390f35b3480156103a057600080fd5b506103ed600480360360408110156103b757600080fd5b8101908080359060200190929190803573ffffffffffffffffffffffffffffffffffffffff1690602001909291905050506114cf565b005b3480156103fb57600080fd5b506104286004803603602081101561041257600080fd5b810190808035906020019092919050505061178d565b604051808381526020018281526020019250505060405180910390f35b34801561045157600080fd5b5061045a611859565b6040518082815260200191505060405180910390f35b34801561047c57600080fd5b506104a96004803603602081101561049357600080fd5b8101908080359060200190929190505050611863565b6040518080602001828103825283818151815260200191508051906020019060200280838360005b838110156104ec5780820151818401526020810190506104d1565b505050509050019250505060405180910390f35b34801561050c57600080fd5b506105396004803603602081101561052357600080fd5b8101908080359060200190929190505050611999565b005b34801561054757600080fd5b506106016004803603602081101561055e57600080fd5b810190808035906020019064010000000081111561057b57600080fd5b82018360208201111561058d57600080fd5b803590602001918460018302840111640100000000831117156105af57600080fd5b91908080601f016020809104026020016040519081016040528093929190818152602001838380828437600081840152601f19601f820116905080830192505050505050509192919290505050611b88565b005b34801561060f57600080fd5b506106526004803603602081101561062657600080fd5b81019080803573ffffffffffffffffffffffffffffffffffffffff169060200190929190505050611d6b565b005b34801561066057600080fd5b506106b76004803603606081101561067757600080fd5b810190808035906020019092919080359060200190929190803573ffffffffffffffffffffffffffffffffffffffff169060200190929190505050611e61565b005b3480156106c557600080fd5b506106fc600480360360408110156106dc57600080fd5b810190808035906020019092919080359060200190929190505050612073565b005b34801561070a57600080fd5b50610713612214565b6040518082815260200191505060405180910390f35b6000809054906101000a900473ffffffffffffffffffffffffffffffffffffffff1673ffffffffffffffffffffffffffffffffffffffff163373ffffffffffffffffffffffffffffffffffffffff16141515610813576040517f08c379a00000000000000000000000000000000000000000000000000000000081526004018080602001828103825260288152602001807f4f6e6c79207374756479206f776e65722063616e2063616c6c2074686973206681526020017f756e6374696f6e2100000000000000000000000000000000000000000000000081525060400191505060405180910390fd5b60011515600360008373ffffffffffffffffffffffffffffffffffffffff1673ffffffffffffffffffffffffffffffffffffffff16815260200190815260200160002060020160009054906101000a900460ff1615151415156108de576040517f08c379a000000000000000000000000000000000000000000000000000000000815260040180806020018281038252601d8152602001807f546869732061646472657373206973206e6f7420612073747564656e7400000081525060200191505060405180910390fd5b60011515600360008373ffffffffffffffffffffffffffffffffffffffff1673ffffffffffffffffffffffffffffffffffffffff16815260200190815260200160002060020160019054906101000a900460ff1615151415156109a9576040517f08c379a000000000000000000000000000000000000000000000000000000000815260040180806020018281038252601d8152602001807f546869732061646472657373206973206e6f7420616e2061646d696e2e00000081525060200191505060405180910390fd5b6000600360008373ffffffffffffffffffffffffffffffffffffffff1673ffffffffffffffffffffffffffffffffffffffff16815260200190815260200160002060020160016101000a81548160ff021916908315150217905550600380811115610a1057fe5b60000b8173ffffffffffffffffffffffffffffffffffffffff167fbd05f7a7c5efc985094faad84a880589cc90adae0bd1ab12f9c6f8a80b5e37d760405160405180910390a350565b6000600654905090565b6000809054906101000a900473ffffffffffffffffffffffffffffffffffffffff1673ffffffffffffffffffffffffffffffffffffffff163373ffffffffffffffffffffffffffffffffffffffff16141515610b4d576040517f08c379a00000000000000000000000000000000000000000000000000000000081526004018080602001828103825260288152602001807f4f6e6c79207374756479206f776e65722063616e2063616c6c2074686973206681526020017f756e6374696f6e2100000000000000000000000000000000000000000000000081525060400191505060405180910390fd5b3373ffffffffffffffffffffffffffffffffffffffff16ff5b60008060008373ffffffffffffffffffffffffffffffffffffffff163373ffffffffffffffffffffffffffffffffffffffff161480610bf15750600360003373ffffffffffffffffffffffffffffffffffffffff1673ffffffffffffffffffffffffffffffffffffffff16815260200190815260200160002060020160019054906101000a900460ff165b1515610bfc57600080fd5b600360008573ffffffffffffffffffffffffffffffffffffffff1673ffffffffffffffffffffffffffffffffffffffff16815260200190815260200160002060000154600360008673ffffffffffffffffffffffffffffffffffffffff1673ffffffffffffffffffffffffffffffffffffffff16815260200190815260200160002060010154600360008773ffffffffffffffffffffffffffffffffffffffff1673ffffffffffffffffffffffffffffffffffffffff16815260200190815260200160002060020160019054906101000a900460ff169250925092509193909250565b6000809054906101000a900473ffffffffffffffffffffffffffffffffffffffff1673ffffffffffffffffffffffffffffffffffffffff163373ffffffffffffffffffffffffffffffffffffffff16141515610dc9576040517f08c379a00000000000000000000000000000000000000000000000000000000081526004018080602001828103825260288152602001807f4f6e6c79207374756479206f776e65722063616e2063616c6c2074686973206681526020017f756e6374696f6e2100000000000000000000000000000000000000000000000081525060400191505060405180910390fd5b600360008273ffffffffffffffffffffffffffffffffffffffff1673ffffffffffffffffffffffffffffffffffffffff16815260200190815260200160002060020160009054906101000a900460ff161515610e8d576040517f08c379a000000000000000000000000000000000000000000000000000000000815260040180806020018281038252601c8152602001807f546869732061646472657373206973206e6f742073747564656e742e0000000081525060200191505060405180910390fd5b60001515600360008373ffffffffffffffffffffffffffffffffffffffff1673ffffffffffffffffffffffffffffffffffffffff16815260200190815260200160002060020160019054906101000a900460ff161515141515610f7e576040517f08c379a00000000000000000000000000000000000000000000000000000000081526004018080602001828103825260218152602001807f54686973206164647265737320697320616c726561647920616e2061646d696e81526020017f2e0000000000000000000000000000000000000000000000000000000000000081525060400191505060405180910390fd5b6001600360008373ffffffffffffffffffffffffffffffffffffffff1673ffffffffffffffffffffffffffffffffffffffff16815260200190815260200160002060020160016101000a81548160ff02191690831515021790555060026003811115610fe657fe5b60000b8173ffffffffffffffffffffffffffffffffffffffff167fbd05f7a7c5efc985094faad84a880589cc90adae0bd1ab12f9c6f8a80b5e37d760405160405180910390a350565b600360003373ffffffffffffffffffffffffffffffffffffffff1673ffffffffffffffffffffffffffffffffffffffff16815260200190815260200160002060020160019054906101000a900460ff161515611119576040517f08c379a00000000000000000000000000000000000000000000000000000000081526004018080602001828103825260288152602001807f4f6e6c792073747564792061646d696e2063616e2063616c6c2074686973206681526020017f756e6374696f6e2100000000000000000000000000000000000000000000000081525060400191505060405180910390fd5b60011515600360008373ffffffffffffffffffffffffffffffffffffffff1673ffffffffffffffffffffffffffffffffffffffff16815260200190815260200160002060020160009054906101000a900460ff1615151415156111e4576040517f08c379a000000000000000000000000000000000000000000000000000000000815260040180806020018281038252601d8152602001807f546869732061646472657373206973206e6f7420612073747564656e7400000081525060200191505060405180910390fd5b60001515600360008373ffffffffffffffffffffffffffffffffffffffff1673ffffffffffffffffffffffffffffffffffffffff16815260200190815260200160002060020160019054906101000a900460ff1615151415156112d5576040517f08c379a000000000000000000000000000000000000000000000000000000000815260040180806020018281038252602e8152602001807f41646d696e206d656d6265722063616e206e6f742062652072656d6f7665642081526020017f6279206f746865722061646d696e00000000000000000000000000000000000081525060400191505060405180910390fd5b608060405190810160405280600060010281526020016000600102815260200160001515815260200160001515815250600360008373ffffffffffffffffffffffffffffffffffffffff1673ffffffffffffffffffffffffffffffffffffffff168152602001908152602001600020600082015181600001556020820151816001015560408201518160020160006101000a81548160ff02191690831515021790555060608201518160020160016101000a81548160ff021916908315150217905550905050600160038111156113a857fe5b60000b8173ffffffffffffffffffffffffffffffffffffffff167fbd05f7a7c5efc985094faad84a880589cc90adae0bd1ab12f9c6f8a80b5e37d760405160405180910390a36005600081548092919060019003919050555050565b606060018054600181600116156101000203166002900480601f01602080910402602001604051908101604052809291908181526020018280546001816001161561010002031660029004801561149c5780601f106114715761010080835404028352916020019161149c565b820191906000526020600020905b81548152906001019060200180831161147f57829003601f168201915b5050505050905090565b60008060009054906101000a900473ffffffffffffffffffffffffffffffffffffffff16905090565b600360003373ffffffffffffffffffffffffffffffffffffffff1673ffffffffffffffffffffffffffffffffffffffff16815260200190815260200160002060020160019054906101000a900460ff1615156115b9576040517f08c379a00000000000000000000000000000000000000000000000000000000081526004018080602001828103825260288152602001807f4f6e6c792073747564792061646d696e2063616e2063616c6c2074686973206681526020017f756e6374696f6e2100000000000000000000000000000000000000000000000081525060400191505060405180910390fd5b600060010260046000848152602001908152602001600020600001541415151561164b576040517f08c379a000000000000000000000000000000000000000000000000000000000815260040180806020018281038252601c8152602001807f546869732073657373696f6e206973206e6f7420736574207965742e0000000081525060200191505060405180910390fd5b600360008273ffffffffffffffffffffffffffffffffffffffff1673ffffffffffffffffffffffffffffffffffffffff16815260200190815260200160002060020160009054906101000a900460ff16151561170f576040517f08c379a000000000000000000000000000000000000000000000000000000000815260040180806020018281038252601c8152602001807f546869732061646472657373206973206e6f742073747564656e742e0000000081525060200191505060405180910390fd5b600460008381526020019081526020016000206002018190806001815401808255809150509060018203906000526020600020016000909192909190916101000a81548173ffffffffffffffffffffffffffffffffffffffff021916908373ffffffffffffffffffffffffffffffffffffffff160217905550505050565b6000806000600102600460008581526020019081526020016000206000015414151515611822576040517f08c379a000000000000000000000000000000000000000000000000000000000815260040180806020018281038252601c8152602001807f546869732073657373696f6e206973206e6f7420736574207965742e0000000081525060200191505060405180910390fd5b6004600084815260200190815260200160002060000154600460008581526020019081526020016000206001015491509150915091565b6000600554905090565b606060006001026004600084815260200190815260200160002060000154141515156118f7576040517f08c379a000000000000000000000000000000000000000000000000000000000815260040180806020018281038252601c8152602001807f546869732073657373696f6e206973206e6f7420736574207965742e0000000081525060200191505060405180910390fd5b6004600083815260200190815260200160002060020180548060200260200160405190810160405280929190818152602001828054801561198d57602002820191906000526020600020905b8160009054906101000a900473ffffffffffffffffffffffffffffffffffffffff1673ffffffffffffffffffffffffffffffffffffffff1681526020019060010190808311611943575b50505050509050919050565b6000809054906101000a900473ffffffffffffffffffffffffffffffffffffffff1673ffffffffffffffffffffffffffffffffffffffff163373ffffffffffffffffffffffffffffffffffffffff16141515611a83576040517f08c379a00000000000000000000000000000000000000000000000000000000081526004018080602001828103825260288152602001807f4f6e6c79207374756479206f776e65722063616e2063616c6c2074686973206681526020017f756e6374696f6e2100000000000000000000000000000000000000000000000081525060400191505060405180910390fd5b806002819055507fddf1e1cf250ae92e5787bedfba378aac7289b561ad5289669832f8dd488b9fe5600182604051808060200183815260200180602001838103835285818154600181600116156101000203166002900481526020019150805460018160011615610100020316600290048015611b415780601f10611b1657610100808354040283529160200191611b41565b820191906000526020600020905b815481529060010190602001808311611b2457829003601f168201915b5050838103825260148152602001807f53796c6c616275732055524c206368616e67656400000000000000000000000081525060200194505050505060405180910390a150565b6000809054906101000a900473ffffffffffffffffffffffffffffffffffffffff1673ffffffffffffffffffffffffffffffffffffffff163373ffffffffffffffffffffffffffffffffffffffff16141515611c72576040517f08c379a00000000000000000000000000000000000000000000000000000000081526004018080602001828103825260288152602001807f4f6e6c79207374756479206f776e65722063616e2063616c6c2074686973206681526020017f756e6374696f6e2100000000000000000000000000000000000000000000000081525060400191505060405180910390fd5b8060019080519060200190611c88929190612318565b507fddf1e1cf250ae92e5787bedfba378aac7289b561ad5289669832f8dd488b9fe581600254604051808060200183815260200180602001838103835285818151815260200191508051906020019080838360005b83811015611cf8578082015181840152602081019050611cdd565b50505050905090810190601f168015611d255780820380516001836020036101000a031916815260200191505b50838103825260128152602001807f5374756479206e616d65206368616e676564000000000000000000000000000081525060200194505050505060405180910390a150565b6000809054906101000a900473ffffffffffffffffffffffffffffffffffffffff1673ffffffffffffffffffffffffffffffffffffffff163373ffffffffffffffffffffffffffffffffffffffff16141515611e55576040517f08c379a00000000000000000000000000000000000000000000000000000000081526004018080602001828103825260288152602001807f4f6e6c79207374756479206f776e65722063616e2063616c6c2074686973206681526020017f756e6374696f6e2100000000000000000000000000000000000000000000000081525060400191505060405180910390fd5b611e5e8161221e565b50565b600360003373ffffffffffffffffffffffffffffffffffffffff1673ffffffffffffffffffffffffffffffffffffffff16815260200190815260200160002060020160019054906101000a900460ff161515611f4b576040517f08c379a00000000000000000000000000000000000000000000000000000000081526004018080602001828103825260288152602001807f4f6e6c792073747564792061646d696e2063616e2063616c6c2074686973206681526020017f756e6374696f6e2100000000000000000000000000000000000000000000000081525060400191505060405180910390fd5b60806040519081016040528084815260200183815260200160011515815260200160001515815250600360008373ffffffffffffffffffffffffffffffffffffffff1673ffffffffffffffffffffffffffffffffffffffff168152602001908152602001600020600082015181600001556020820151816001015560408201518160020160006101000a81548160ff02191690831515021790555060608201518160020160016101000a81548160ff0219169083151502179055509050506000600381111561201657fe5b60000b8173ffffffffffffffffffffffffffffffffffffffff167fbd05f7a7c5efc985094faad84a880589cc90adae0bd1ab12f9c6f8a80b5e37d760405160405180910390a3600560008154809291906001019190505550505050565b600360003373ffffffffffffffffffffffffffffffffffffffff1673ffffffffffffffffffffffffffffffffffffffff16815260200190815260200160002060020160019054906101000a900460ff16151561215d576040517f08c379a00000000000000000000000000000000000000000000000000000000081526004018080602001828103825260288152602001807f4f6e6c792073747564792061646d696e2063616e2063616c6c2074686973206681526020017f756e6374696f6e2100000000000000000000000000000000000000000000000081525060400191505060405180910390fd5b612165612398565b60606040519081016040528084815260200183815260200160006040519080825280602002602001820160405280156121ad5781602001602082028038833980820191505090505b50815250905080600460006006548152602001908152602001600020600082015181600001556020820151816001015560408201518160020190805190602001906121f99291906123c0565b50905050600660008154809291906001019190505550505050565b6000600254905090565b600073ffffffffffffffffffffffffffffffffffffffff168173ffffffffffffffffffffffffffffffffffffffff161415151561225a57600080fd5b8073ffffffffffffffffffffffffffffffffffffffff166000809054906101000a900473ffffffffffffffffffffffffffffffffffffffff1673ffffffffffffffffffffffffffffffffffffffff167f8be0079c531659141344cd1fd0a4f28419497f9722a3daafe3b4186f6b6457e060405160405180910390a3806000806101000a81548173ffffffffffffffffffffffffffffffffffffffff021916908373ffffffffffffffffffffffffffffffffffffffff16021790555050565b828054600181600116156101000203166002900490600052602060002090601f016020900481019282601f1061235957805160ff1916838001178555612387565b82800160010185558215612387579182015b8281111561238657825182559160200191906001019061236b565b5b509050612394919061244a565b5090565b6060604051908101604052806000801916815260200160008019168152602001606081525090565b828054828255906000526020600020908101928215612439579160200282015b828111156124385782518260006101000a81548173ffffffffffffffffffffffffffffffffffffffff021916908373ffffffffffffffffffffffffffffffffffffffff160217905550916020019190600101906123e0565b5b509050612446919061246f565b5090565b61246c91905b80821115612468576000816000905550600101612450565b5090565b90565b6124af91905b808211156124ab57600081816101000a81549073ffffffffffffffffffffffffffffffffffffffff021916905550600101612475565b5090565b9056fea165627a7a7230582040c447d3c4329775d9bbf2ae3ab0a3bd11b8b82bbddb60e40e1f86deb3122f240029a165627a7a723058200410987612f09eefebb791d97e9a880b8e04e8693cbc9b03f9a0ae720f0653e70029",
  "source": "pragma solidity ^0.5.0;\n\n/// @author The Modulabs Team\n/// @title A Study contract\n\nimport \"./Study.sol\";\n\ncontract Lab {\n  address public _labOwner;\n  string public labName;\n  address[] public studyList;\n\n  event StudyCreated(address studyAddr, address studyAdmin);\n\n  constructor (string memory _labName) public {\n    _labOwner = msg.sender;\n    labName = _labName;\n  }\n\n  function setLabName(string memory _labName) public {\n    require(msg.sender == _labOwner);\n    labName = _labName;\n  }\n\n  function getStudyCount() public view returns(uint count) {\n    return studyList.length;\n  }\n\n  function createStudy(string memory _studyName, bytes32 _ownerName, bytes32 _ownerEmail, bytes32 _syllabusURL) public {\n    Study newStudy = new Study(msg.sender, _studyName, _ownerName, _ownerEmail, _syllabusURL);\n    address _addr = address(newStudy);\n    studyList.push(_addr);\n    emit StudyCreated(_addr, msg.sender);\n  }\n\n  function getStudyList() public view returns(address[] memory) {\n    return studyList;\n  }\n}\n",
  "sourcePath": "/Users/currybab/codingcoding/blockchain-lab/contracts/Lab.sol",
  "compiler": {
    "name": "solc",
    "version": "0.5.0+commit.1d4f565a.Emscripten.clang"
  },
  "schemaVersion": "3.0.3",
  "updatedAt": "2019-04-30T09:37:22.971Z",
  "devdoc": {
    "methods": {}
  },
  "userdoc": {
    "methods": {}
  }
}