{
  "contractName": "Lab",
  "abi": [
    {
      "constant": true,
      "inputs": [],
      "name": "labName",
      "outputs": [
        {
          "name": "",
          "type": "string"
        }
      ],
      "payable": false,
      "stateMutability": "view",
      "type": "function",
      "signature": "0x71756577"
    },
    {
      "constant": true,
      "inputs": [
        {
          "name": "",
          "type": "uint256"
        }
      ],
      "name": "studyList",
      "outputs": [
        {
          "name": "",
          "type": "address"
        }
      ],
      "payable": false,
      "stateMutability": "view",
      "type": "function",
      "signature": "0xbbf415c4"
    },
    {
      "constant": true,
      "inputs": [],
      "name": "_labOwner",
      "outputs": [
        {
          "name": "",
          "type": "address"
        }
      ],
      "payable": false,
      "stateMutability": "view",
      "type": "function",
      "signature": "0xe2e2384c"
    },
    {
      "inputs": [],
      "payable": false,
      "stateMutability": "nonpayable",
      "type": "constructor",
      "signature": "constructor"
    },
    {
      "anonymous": false,
      "inputs": [
        {
          "indexed": false,
          "name": "studyAddr",
          "type": "address"
        },
        {
          "indexed": false,
          "name": "studyAdmin",
          "type": "address"
        }
      ],
      "name": "StudyCreated",
      "type": "event",
      "signature": "0x0156e4a33a773dddbb7d73fced87c00e0017214a8fd71d1c3049d29dbceae7a9"
    },
    {
      "constant": false,
      "inputs": [
        {
          "name": "_labName",
          "type": "string"
        }
      ],
      "name": "setLabName",
      "outputs": [],
      "payable": false,
      "stateMutability": "nonpayable",
      "type": "function",
      "signature": "0x0c15b95a"
    },
    {
      "constant": true,
      "inputs": [],
      "name": "getStudyCount",
      "outputs": [
        {
          "name": "count",
          "type": "uint256"
        }
      ],
      "payable": false,
      "stateMutability": "view",
      "type": "function",
      "signature": "0xddd7c140"
    },
    {
      "constant": false,
      "inputs": [
        {
          "name": "_studyName",
          "type": "string"
        },
        {
          "name": "_ownerName",
          "type": "bytes32"
        },
        {
          "name": "_ownerEmail",
          "type": "bytes32"
        },
        {
          "name": "_syllabusURL",
          "type": "bytes32"
        }
      ],
      "name": "createStudy",
      "outputs": [],
      "payable": false,
      "stateMutability": "nonpayable",
      "type": "function",
      "signature": "0x0dce3d55"
    }
  ],
  "bytecode": "0x608060405234801561001057600080fd5b50336000806101000a81548173ffffffffffffffffffffffffffffffffffffffff021916908373ffffffffffffffffffffffffffffffffffffffff16021790555061301b806100606000396000f3fe608060405260043610610078576000357c0100000000000000000000000000000000000000000000000000000000900463ffffffff1680630c15b95a1461007d5780630dce3d5514610145578063717565771461022b578063bbf415c4146102bb578063ddd7c14014610336578063e2e2384c14610361575b600080fd5b34801561008957600080fd5b50610143600480360360208110156100a057600080fd5b81019080803590602001906401000000008111156100bd57600080fd5b8201836020820111156100cf57600080fd5b803590602001918460018302840111640100000000831117156100f157600080fd5b91908080601f016020809104026020016040519081016040528093929190818152602001838380828437600081840152601f19601f8201169050808301925050505050505091929192905050506103b8565b005b34801561015157600080fd5b506102296004803603608081101561016857600080fd5b810190808035906020019064010000000081111561018557600080fd5b82018360208201111561019757600080fd5b803590602001918460018302840111640100000000831117156101b957600080fd5b91908080601f016020809104026020016040519081016040528093929190818152602001838380828437600081840152601f19601f82011690508083019250505050505050919291929080359060200190929190803590602001909291908035906020019092919050505061042d565b005b34801561023757600080fd5b5061024061061c565b6040518080602001828103825283818151815260200191508051906020019080838360005b83811015610280578082015181840152602081019050610265565b50505050905090810190601f1680156102ad5780820380516001836020036101000a031916815260200191505b509250505060405180910390f35b3480156102c757600080fd5b506102f4600480360360208110156102de57600080fd5b81019080803590602001909291905050506106ba565b604051808273ffffffffffffffffffffffffffffffffffffffff1673ffffffffffffffffffffffffffffffffffffffff16815260200191505060405180910390f35b34801561034257600080fd5b5061034b6106f8565b6040518082815260200191505060405180910390f35b34801561036d57600080fd5b50610376610705565b604051808273ffffffffffffffffffffffffffffffffffffffff1673ffffffffffffffffffffffffffffffffffffffff16815260200191505060405180910390f35b6000809054906101000a900473ffffffffffffffffffffffffffffffffffffffff1673ffffffffffffffffffffffffffffffffffffffff163373ffffffffffffffffffffffffffffffffffffffff1614151561041357600080fd5b806001908051906020019061042992919061072a565b5050565b6000338585858561043c6107aa565b808673ffffffffffffffffffffffffffffffffffffffff1673ffffffffffffffffffffffffffffffffffffffff16815260200180602001858152602001848152602001838152602001828103825286818151815260200191508051906020019080838360005b838110156104bd5780820151818401526020810190506104a2565b50505050905090810190601f1680156104ea5780820380516001836020036101000a031916815260200191505b509650505050505050604051809103906000f08015801561050f573d6000803e3d6000fd5b509050600081905060028190806001815401808255809150509060018203906000526020600020016000909192909190916101000a81548173ffffffffffffffffffffffffffffffffffffffff021916908373ffffffffffffffffffffffffffffffffffffffff160217905550507f0156e4a33a773dddbb7d73fced87c00e0017214a8fd71d1c3049d29dbceae7a98133604051808373ffffffffffffffffffffffffffffffffffffffff1673ffffffffffffffffffffffffffffffffffffffff1681526020018273ffffffffffffffffffffffffffffffffffffffff1673ffffffffffffffffffffffffffffffffffffffff1681526020019250505060405180910390a1505050505050565b60018054600181600116156101000203166002900480601f0160208091040260200160405190810160405280929190818152602001828054600181600116156101000203166002900480156106b25780601f10610687576101008083540402835291602001916106b2565b820191906000526020600020905b81548152906001019060200180831161069557829003601f168201915b505050505081565b6002818154811015156106c957fe5b906000526020600020016000915054906101000a900473ffffffffffffffffffffffffffffffffffffffff1681565b6000600280549050905090565b6000809054906101000a900473ffffffffffffffffffffffffffffffffffffffff1681565b828054600181600116156101000203166002900490600052602060002090601f016020900481019282601f1061076b57805160ff1916838001178555610799565b82800160010185558215610799579182015b8281111561079857825182559160200191906001019061077d565b5b5090506107a691906107bb565b5090565b60405161280f80620007e183390190565b6107dd91905b808211156107d95760008160009055506001016107c1565b5090565b9056fe60806040523480156200001157600080fd5b506040516200280f3803806200280f833981018060405260a08110156200003757600080fd5b810190808051906020019092919080516401000000008111156200005a57600080fd5b828101905060208101848111156200007157600080fd5b81518560018202830111640100000000821117156200008f57600080fd5b50509291906020018051906020019092919080519060200190929190805190602001909291905050508360019080519060200190620000d0929190620002f2565b50846000806101000a81548173ffffffffffffffffffffffffffffffffffffffff021916908373ffffffffffffffffffffffffffffffffffffffff16021790555060806040519081016040528084815260200183815260200160011515815260200160011515815250600360008060009054906101000a900473ffffffffffffffffffffffffffffffffffffffff1673ffffffffffffffffffffffffffffffffffffffff1673ffffffffffffffffffffffffffffffffffffffff168152602001908152602001600020600082015181600001556020820151816001015560408201518160020160006101000a81548160ff02191690831515021790555060608201518160020160016101000a81548160ff02191690831515021790555090505080600281905550600160068190555060016005819055507fddf1e1cf250ae92e5787bedfba378aac7289b561ad5289669832f8dd488b9fe58482604051808060200183815260200180602001838103835285818151815260200191508051906020019080838360005b838110156200027657808201518184015260208101905062000259565b50505050905090810190601f168015620002a45780820380516001836020036101000a031916815260200191505b508381038252600d8152602001807f537475647920437265617465640000000000000000000000000000000000000081525060200194505050505060405180910390a15050505050620003a1565b828054600181600116156101000203166002900490600052602060002090601f016020900481019282601f106200033557805160ff191683800117855562000366565b8280016001018555821562000366579182015b828111156200036557825182559160200191906001019062000348565b5b50905062000375919062000379565b5090565b6200039e91905b808211156200039a57600081600090555060010162000380565b5090565b90565b61245e80620003b16000396000f3fe6080604052600436106100e6576000357c0100000000000000000000000000000000000000000000000000000000900463ffffffff1680631785f53c146100eb57806341c0e1b51461013c5780634b82caec14610153578063704b6c02146101ca57806378c4798c1461021b5780638522de361461026c578063893d20e8146102fc57806393bddbb1146103535780639e10acf0146103ae578063b4307e3f14610404578063d81d48db14610494578063deee6a5b146104cf578063f2fde38b14610597578063f3240cfb146105e8578063f66f6f221461064d578063f750d77e14610692575b600080fd5b3480156100f757600080fd5b5061013a6004803603602081101561010e57600080fd5b81019080803573ffffffffffffffffffffffffffffffffffffffff1690602001909291905050506106bd565b005b34801561014857600080fd5b506101516109ed565b005b34801561015f57600080fd5b506101a26004803603602081101561017657600080fd5b81019080803573ffffffffffffffffffffffffffffffffffffffff169060200190929190505050610af0565b6040518084815260200183815260200182151515158152602001935050505060405180910390f35b3480156101d657600080fd5b50610219600480360360208110156101ed57600080fd5b81019080803573ffffffffffffffffffffffffffffffffffffffff169060200190929190505050610c69565b005b34801561022757600080fd5b5061026a6004803603602081101561023e57600080fd5b81019080803573ffffffffffffffffffffffffffffffffffffffff169060200190929190505050610fb9565b005b34801561027857600080fd5b5061028161138e565b6040518080602001828103825283818151815260200191508051906020019080838360005b838110156102c15780820151818401526020810190506102a6565b50505050905090810190601f1680156102ee5780820380516001836020036101000a031916815260200191505b509250505060405180910390f35b34801561030857600080fd5b50610311611430565b604051808273ffffffffffffffffffffffffffffffffffffffff1673ffffffffffffffffffffffffffffffffffffffff16815260200191505060405180910390f35b34801561035f57600080fd5b506103ac6004803603604081101561037657600080fd5b8101908080359060200190929190803573ffffffffffffffffffffffffffffffffffffffff169060200190929190505050611459565b005b3480156103ba57600080fd5b506103e7600480360360208110156103d157600080fd5b8101908080359060200190929190505050611717565b604051808381526020018281526020019250505060405180910390f35b34801561041057600080fd5b5061043d6004803603602081101561042757600080fd5b81019080803590602001909291905050506117e3565b6040518080602001828103825283818151815260200191508051906020019060200280838360005b83811015610480578082015181840152602081019050610465565b505050509050019250505060405180910390f35b3480156104a057600080fd5b506104cd600480360360208110156104b757600080fd5b8101908080359060200190929190505050611919565b005b3480156104db57600080fd5b50610595600480360360208110156104f257600080fd5b810190808035906020019064010000000081111561050f57600080fd5b82018360208201111561052157600080fd5b8035906020019184600183028401116401000000008311171561054357600080fd5b91908080601f016020809104026020016040519081016040528093929190818152602001838380828437600081840152601f19601f820116905080830192505050505050509192919290505050611b08565b005b3480156105a357600080fd5b506105e6600480360360208110156105ba57600080fd5b81019080803573ffffffffffffffffffffffffffffffffffffffff169060200190929190505050611ceb565b005b3480156105f457600080fd5b5061064b6004803603606081101561060b57600080fd5b810190808035906020019092919080359060200190929190803573ffffffffffffffffffffffffffffffffffffffff169060200190929190505050611de1565b005b34801561065957600080fd5b506106906004803603604081101561067057600080fd5b810190808035906020019092919080359060200190929190505050611ff3565b005b34801561069e57600080fd5b506106a7612194565b6040518082815260200191505060405180910390f35b6000809054906101000a900473ffffffffffffffffffffffffffffffffffffffff1673ffffffffffffffffffffffffffffffffffffffff163373ffffffffffffffffffffffffffffffffffffffff161415156107a7576040517f08c379a00000000000000000000000000000000000000000000000000000000081526004018080602001828103825260288152602001807f4f6e6c79207374756479206f776e65722063616e2063616c6c2074686973206681526020017f756e6374696f6e2100000000000000000000000000000000000000000000000081525060400191505060405180910390fd5b60011515600360008373ffffffffffffffffffffffffffffffffffffffff1673ffffffffffffffffffffffffffffffffffffffff16815260200190815260200160002060020160009054906101000a900460ff161515141515610872576040517f08c379a000000000000000000000000000000000000000000000000000000000815260040180806020018281038252601d8152602001807f546869732061646472657373206973206e6f7420612073747564656e7400000081525060200191505060405180910390fd5b60011515600360008373ffffffffffffffffffffffffffffffffffffffff1673ffffffffffffffffffffffffffffffffffffffff16815260200190815260200160002060020160019054906101000a900460ff16151514151561093d576040517f08c379a000000000000000000000000000000000000000000000000000000000815260040180806020018281038252601d8152602001807f546869732061646472657373206973206e6f7420616e2061646d696e2e00000081525060200191505060405180910390fd5b6000600360008373ffffffffffffffffffffffffffffffffffffffff1673ffffffffffffffffffffffffffffffffffffffff16815260200190815260200160002060020160016101000a81548160ff0219169083151502179055506003808111156109a457fe5b60000b8173ffffffffffffffffffffffffffffffffffffffff167fbd05f7a7c5efc985094faad84a880589cc90adae0bd1ab12f9c6f8a80b5e37d760405160405180910390a350565b6000809054906101000a900473ffffffffffffffffffffffffffffffffffffffff1673ffffffffffffffffffffffffffffffffffffffff163373ffffffffffffffffffffffffffffffffffffffff16141515610ad7576040517f08c379a00000000000000000000000000000000000000000000000000000000081526004018080602001828103825260288152602001807f4f6e6c79207374756479206f776e65722063616e2063616c6c2074686973206681526020017f756e6374696f6e2100000000000000000000000000000000000000000000000081525060400191505060405180910390fd5b3373ffffffffffffffffffffffffffffffffffffffff16ff5b60008060008373ffffffffffffffffffffffffffffffffffffffff163373ffffffffffffffffffffffffffffffffffffffff161480610b7b5750600360003373ffffffffffffffffffffffffffffffffffffffff1673ffffffffffffffffffffffffffffffffffffffff16815260200190815260200160002060020160019054906101000a900460ff165b1515610b8657600080fd5b600360008573ffffffffffffffffffffffffffffffffffffffff1673ffffffffffffffffffffffffffffffffffffffff16815260200190815260200160002060000154600360008673ffffffffffffffffffffffffffffffffffffffff1673ffffffffffffffffffffffffffffffffffffffff16815260200190815260200160002060010154600360008773ffffffffffffffffffffffffffffffffffffffff1673ffffffffffffffffffffffffffffffffffffffff16815260200190815260200160002060020160019054906101000a900460ff169250925092509193909250565b6000809054906101000a900473ffffffffffffffffffffffffffffffffffffffff1673ffffffffffffffffffffffffffffffffffffffff163373ffffffffffffffffffffffffffffffffffffffff16141515610d53576040517f08c379a00000000000000000000000000000000000000000000000000000000081526004018080602001828103825260288152602001807f4f6e6c79207374756479206f776e65722063616e2063616c6c2074686973206681526020017f756e6374696f6e2100000000000000000000000000000000000000000000000081525060400191505060405180910390fd5b600360008273ffffffffffffffffffffffffffffffffffffffff1673ffffffffffffffffffffffffffffffffffffffff16815260200190815260200160002060020160009054906101000a900460ff161515610e17576040517f08c379a000000000000000000000000000000000000000000000000000000000815260040180806020018281038252601c8152602001807f546869732061646472657373206973206e6f742073747564656e742e0000000081525060200191505060405180910390fd5b60001515600360008373ffffffffffffffffffffffffffffffffffffffff1673ffffffffffffffffffffffffffffffffffffffff16815260200190815260200160002060020160019054906101000a900460ff161515141515610f08576040517f08c379a00000000000000000000000000000000000000000000000000000000081526004018080602001828103825260218152602001807f54686973206164647265737320697320616c726561647920616e2061646d696e81526020017f2e0000000000000000000000000000000000000000000000000000000000000081525060400191505060405180910390fd5b6001600360008373ffffffffffffffffffffffffffffffffffffffff1673ffffffffffffffffffffffffffffffffffffffff16815260200190815260200160002060020160016101000a81548160ff02191690831515021790555060026003811115610f7057fe5b60000b8173ffffffffffffffffffffffffffffffffffffffff167fbd05f7a7c5efc985094faad84a880589cc90adae0bd1ab12f9c6f8a80b5e37d760405160405180910390a350565b600360003373ffffffffffffffffffffffffffffffffffffffff1673ffffffffffffffffffffffffffffffffffffffff16815260200190815260200160002060020160019054906101000a900460ff1615156110a3576040517f08c379a00000000000000000000000000000000000000000000000000000000081526004018080602001828103825260288152602001807f4f6e6c792073747564792061646d696e2063616e2063616c6c2074686973206681526020017f756e6374696f6e2100000000000000000000000000000000000000000000000081525060400191505060405180910390fd5b60011515600360008373ffffffffffffffffffffffffffffffffffffffff1673ffffffffffffffffffffffffffffffffffffffff16815260200190815260200160002060020160009054906101000a900460ff16151514151561116e576040517f08c379a000000000000000000000000000000000000000000000000000000000815260040180806020018281038252601d8152602001807f546869732061646472657373206973206e6f7420612073747564656e7400000081525060200191505060405180910390fd5b60001515600360008373ffffffffffffffffffffffffffffffffffffffff1673ffffffffffffffffffffffffffffffffffffffff16815260200190815260200160002060020160019054906101000a900460ff16151514151561125f576040517f08c379a000000000000000000000000000000000000000000000000000000000815260040180806020018281038252602e8152602001807f41646d696e206d656d6265722063616e206e6f742062652072656d6f7665642081526020017f6279206f746865722061646d696e00000000000000000000000000000000000081525060400191505060405180910390fd5b608060405190810160405280600060010281526020016000600102815260200160001515815260200160001515815250600360008373ffffffffffffffffffffffffffffffffffffffff1673ffffffffffffffffffffffffffffffffffffffff168152602001908152602001600020600082015181600001556020820151816001015560408201518160020160006101000a81548160ff02191690831515021790555060608201518160020160016101000a81548160ff0219169083151502179055509050506001600381111561133257fe5b60000b8173ffffffffffffffffffffffffffffffffffffffff167fbd05f7a7c5efc985094faad84a880589cc90adae0bd1ab12f9c6f8a80b5e37d760405160405180910390a36005600081548092919060019003919050555050565b606060018054600181600116156101000203166002900480601f0160208091040260200160405190810160405280929190818152602001828054600181600116156101000203166002900480156114265780601f106113fb57610100808354040283529160200191611426565b820191906000526020600020905b81548152906001019060200180831161140957829003601f168201915b5050505050905090565b60008060009054906101000a900473ffffffffffffffffffffffffffffffffffffffff16905090565b600360003373ffffffffffffffffffffffffffffffffffffffff1673ffffffffffffffffffffffffffffffffffffffff16815260200190815260200160002060020160019054906101000a900460ff161515611543576040517f08c379a00000000000000000000000000000000000000000000000000000000081526004018080602001828103825260288152602001807f4f6e6c792073747564792061646d696e2063616e2063616c6c2074686973206681526020017f756e6374696f6e2100000000000000000000000000000000000000000000000081525060400191505060405180910390fd5b60006001026004600084815260200190815260200160002060000154141515156115d5576040517f08c379a000000000000000000000000000000000000000000000000000000000815260040180806020018281038252601c8152602001807f546869732073657373696f6e206973206e6f7420736574207965742e0000000081525060200191505060405180910390fd5b600360008273ffffffffffffffffffffffffffffffffffffffff1673ffffffffffffffffffffffffffffffffffffffff16815260200190815260200160002060020160009054906101000a900460ff161515611699576040517f08c379a000000000000000000000000000000000000000000000000000000000815260040180806020018281038252601c8152602001807f546869732061646472657373206973206e6f742073747564656e742e0000000081525060200191505060405180910390fd5b600460008381526020019081526020016000206002018190806001815401808255809150509060018203906000526020600020016000909192909190916101000a81548173ffffffffffffffffffffffffffffffffffffffff021916908373ffffffffffffffffffffffffffffffffffffffff160217905550505050565b60008060006001026004600085815260200190815260200160002060000154141515156117ac576040517f08c379a000000000000000000000000000000000000000000000000000000000815260040180806020018281038252601c8152602001807f546869732073657373696f6e206973206e6f7420736574207965742e0000000081525060200191505060405180910390fd5b6004600084815260200190815260200160002060000154600460008581526020019081526020016000206001015491509150915091565b60606000600102600460008481526020019081526020016000206000015414151515611877576040517f08c379a000000000000000000000000000000000000000000000000000000000815260040180806020018281038252601c8152602001807f546869732073657373696f6e206973206e6f7420736574207965742e0000000081525060200191505060405180910390fd5b6004600083815260200190815260200160002060020180548060200260200160405190810160405280929190818152602001828054801561190d57602002820191906000526020600020905b8160009054906101000a900473ffffffffffffffffffffffffffffffffffffffff1673ffffffffffffffffffffffffffffffffffffffff16815260200190600101908083116118c3575b50505050509050919050565b6000809054906101000a900473ffffffffffffffffffffffffffffffffffffffff1673ffffffffffffffffffffffffffffffffffffffff163373ffffffffffffffffffffffffffffffffffffffff16141515611a03576040517f08c379a00000000000000000000000000000000000000000000000000000000081526004018080602001828103825260288152602001807f4f6e6c79207374756479206f776e65722063616e2063616c6c2074686973206681526020017f756e6374696f6e2100000000000000000000000000000000000000000000000081525060400191505060405180910390fd5b806002819055507fddf1e1cf250ae92e5787bedfba378aac7289b561ad5289669832f8dd488b9fe5600182604051808060200183815260200180602001838103835285818154600181600116156101000203166002900481526020019150805460018160011615610100020316600290048015611ac15780601f10611a9657610100808354040283529160200191611ac1565b820191906000526020600020905b815481529060010190602001808311611aa457829003601f168201915b5050838103825260148152602001807f53796c6c616275732055524c206368616e67656400000000000000000000000081525060200194505050505060405180910390a150565b6000809054906101000a900473ffffffffffffffffffffffffffffffffffffffff1673ffffffffffffffffffffffffffffffffffffffff163373ffffffffffffffffffffffffffffffffffffffff16141515611bf2576040517f08c379a00000000000000000000000000000000000000000000000000000000081526004018080602001828103825260288152602001807f4f6e6c79207374756479206f776e65722063616e2063616c6c2074686973206681526020017f756e6374696f6e2100000000000000000000000000000000000000000000000081525060400191505060405180910390fd5b8060019080519060200190611c08929190612298565b507fddf1e1cf250ae92e5787bedfba378aac7289b561ad5289669832f8dd488b9fe581600254604051808060200183815260200180602001838103835285818151815260200191508051906020019080838360005b83811015611c78578082015181840152602081019050611c5d565b50505050905090810190601f168015611ca55780820380516001836020036101000a031916815260200191505b50838103825260128152602001807f5374756479206e616d65206368616e676564000000000000000000000000000081525060200194505050505060405180910390a150565b6000809054906101000a900473ffffffffffffffffffffffffffffffffffffffff1673ffffffffffffffffffffffffffffffffffffffff163373ffffffffffffffffffffffffffffffffffffffff16141515611dd5576040517f08c379a00000000000000000000000000000000000000000000000000000000081526004018080602001828103825260288152602001807f4f6e6c79207374756479206f776e65722063616e2063616c6c2074686973206681526020017f756e6374696f6e2100000000000000000000000000000000000000000000000081525060400191505060405180910390fd5b611dde8161219e565b50565b600360003373ffffffffffffffffffffffffffffffffffffffff1673ffffffffffffffffffffffffffffffffffffffff16815260200190815260200160002060020160019054906101000a900460ff161515611ecb576040517f08c379a00000000000000000000000000000000000000000000000000000000081526004018080602001828103825260288152602001807f4f6e6c792073747564792061646d696e2063616e2063616c6c2074686973206681526020017f756e6374696f6e2100000000000000000000000000000000000000000000000081525060400191505060405180910390fd5b60806040519081016040528084815260200183815260200160011515815260200160001515815250600360008373ffffffffffffffffffffffffffffffffffffffff1673ffffffffffffffffffffffffffffffffffffffff168152602001908152602001600020600082015181600001556020820151816001015560408201518160020160006101000a81548160ff02191690831515021790555060608201518160020160016101000a81548160ff02191690831515021790555090505060006003811115611f9657fe5b60000b8173ffffffffffffffffffffffffffffffffffffffff167fbd05f7a7c5efc985094faad84a880589cc90adae0bd1ab12f9c6f8a80b5e37d760405160405180910390a3600560008154809291906001019190505550505050565b600360003373ffffffffffffffffffffffffffffffffffffffff1673ffffffffffffffffffffffffffffffffffffffff16815260200190815260200160002060020160019054906101000a900460ff1615156120dd576040517f08c379a00000000000000000000000000000000000000000000000000000000081526004018080602001828103825260288152602001807f4f6e6c792073747564792061646d696e2063616e2063616c6c2074686973206681526020017f756e6374696f6e2100000000000000000000000000000000000000000000000081525060400191505060405180910390fd5b6120e5612318565b606060405190810160405280848152602001838152602001600060405190808252806020026020018201604052801561212d5781602001602082028038833980820191505090505b5081525090508060046000600654815260200190815260200160002060008201518160000155602082015181600101556040820151816002019080519060200190612179929190612340565b50905050600660008154809291906001019190505550505050565b6000600254905090565b600073ffffffffffffffffffffffffffffffffffffffff168173ffffffffffffffffffffffffffffffffffffffff16141515156121da57600080fd5b8073ffffffffffffffffffffffffffffffffffffffff166000809054906101000a900473ffffffffffffffffffffffffffffffffffffffff1673ffffffffffffffffffffffffffffffffffffffff167f8be0079c531659141344cd1fd0a4f28419497f9722a3daafe3b4186f6b6457e060405160405180910390a3806000806101000a81548173ffffffffffffffffffffffffffffffffffffffff021916908373ffffffffffffffffffffffffffffffffffffffff16021790555050565b828054600181600116156101000203166002900490600052602060002090601f016020900481019282601f106122d957805160ff1916838001178555612307565b82800160010185558215612307579182015b828111156123065782518255916020019190600101906122eb565b5b50905061231491906123ca565b5090565b6060604051908101604052806000801916815260200160008019168152602001606081525090565b8280548282559060005260206000209081019282156123b9579160200282015b828111156123b85782518260006101000a81548173ffffffffffffffffffffffffffffffffffffffff021916908373ffffffffffffffffffffffffffffffffffffffff16021790555091602001919060010190612360565b5b5090506123c691906123ef565b5090565b6123ec91905b808211156123e85760008160009055506001016123d0565b5090565b90565b61242f91905b8082111561242b57600081816101000a81549073ffffffffffffffffffffffffffffffffffffffff0219169055506001016123f5565b5090565b9056fea165627a7a72305820cd167b6bf7946ecc5800f72bb6d0bfdf03bad7437aa9c560a1c839cdbee0bddb0029a165627a7a723058206a15a61a9f9eeede2fccb38c988752769a35ce44441621930253cfc5bfadf8c80029",
  "source": "pragma solidity ^0.5.0;\n\n/// @author The Modulabs Team\n/// @title A Study contract\n\nimport \"./Study.sol\";\n\ncontract Lab {\n    address public _labOwner;\n    string public labName;\n    address[] public studyList;\n\n    event StudyCreated(address studyAddr, address studyAdmin);\n\n    constructor () public {\n        _labOwner = msg.sender;\n    }\n\n    function setLabName (string memory _labName) public {\n        require(msg.sender == _labOwner);\n        labName = _labName;\n    }\n\n    function getStudyCount() public view returns(uint count) {\n        return studyList.length;\n    }\n\n    function createStudy(\n        string memory _studyName, \n        bytes32 _ownerName, \n        bytes32 _ownerEmail,\n        bytes32 _syllabusURL) \n        public\n        {\n        Study newStudy = new Study(msg.sender, _studyName, _ownerName, _ownerEmail, _syllabusURL);\n        address _addr = address(newStudy);\n        studyList.push(_addr);\n        emit StudyCreated(_addr, msg.sender);\n    }\n}\n",
  "sourcePath": "/Users/kimminhyun/git/blockchain-lab/blockchain-lab/contracts/Lab.sol",
  "compiler": {
    "name": "solc",
    "version": "0.5.0+commit.1d4f565a.Emscripten.clang"
  },
  "schemaVersion": "3.0.2",
  "updatedAt": "2019-03-30T06:17:54.215Z",
  "devdoc": {
    "methods": {}
  },
  "userdoc": {
    "methods": {}
  }
}